{
  "contractName": "KetherHomepage",
  "abi": [
    {
      "constant": true,
      "inputs": [
        {
          "name": "",
          "type": "uint256"
        }
      ],
      "name": "ads",
      "outputs": [
        {
          "name": "owner",
          "type": "address"
        },
        {
          "name": "x",
          "type": "uint256"
        },
        {
          "name": "y",
          "type": "uint256"
        },
        {
          "name": "width",
          "type": "uint256"
        },
        {
          "name": "height",
          "type": "uint256"
        },
        {
          "name": "link",
          "type": "string"
        },
        {
          "name": "image",
          "type": "string"
        },
        {
          "name": "title",
          "type": "string"
        },
        {
          "name": "NSFW",
          "type": "bool"
        },
        {
          "name": "forceNSFW",
          "type": "bool"
        }
      ],
      "payable": false,
      "stateMutability": "view",
      "type": "function"
    },
    {
      "constant": false,
      "inputs": [
        {
          "name": "_x",
          "type": "uint256"
        },
        {
          "name": "_y",
          "type": "uint256"
        },
        {
          "name": "_width",
          "type": "uint256"
        },
        {
          "name": "_height",
          "type": "uint256"
        }
      ],
      "name": "buy",
      "outputs": [
        {
          "name": "idx",
          "type": "uint256"
        }
      ],
      "payable": true,
      "stateMutability": "payable",
      "type": "function"
    },
    {
      "constant": true,
      "inputs": [],
      "name": "pixelsPerCell",
      "outputs": [
        {
          "name": "",
          "type": "uint256"
        }
      ],
      "payable": false,
      "stateMutability": "view",
      "type": "function"
    },
    {
      "constant": true,
      "inputs": [
        {
          "name": "",
          "type": "uint256"
        },
        {
          "name": "",
          "type": "uint256"
        }
      ],
      "name": "grid",
      "outputs": [
        {
          "name": "",
          "type": "bool"
        }
      ],
      "payable": false,
      "stateMutability": "view",
      "type": "function"
    },
    {
      "constant": false,
      "inputs": [],
      "name": "withdraw",
      "outputs": [],
      "payable": false,
      "stateMutability": "nonpayable",
      "type": "function"
    },
    {
      "constant": true,
      "inputs": [],
      "name": "getContractOwner",
      "outputs": [
        {
          "name": "",
          "type": "address"
        }
      ],
      "payable": false,
      "stateMutability": "view",
      "type": "function"
    },
    {
      "constant": false,
      "inputs": [
        {
          "name": "_idx",
          "type": "uint256"
        },
        {
          "name": "_link",
          "type": "string"
        },
        {
          "name": "_image",
          "type": "string"
        },
        {
          "name": "_title",
          "type": "string"
        },
        {
          "name": "_NSFW",
          "type": "bool"
        }
      ],
      "name": "publish",
      "outputs": [],
      "payable": false,
      "stateMutability": "nonpayable",
      "type": "function"
    },
    {
      "constant": false,
      "inputs": [
        {
          "name": "_idx",
          "type": "uint256"
        },
        {
          "name": "_newOwner",
          "type": "address"
        }
      ],
      "name": "setAdOwner",
      "outputs": [],
      "payable": false,
      "stateMutability": "nonpayable",
      "type": "function"
    },
    {
      "constant": true,
      "inputs": [],
      "name": "getAdsLength",
      "outputs": [
        {
          "name": "",
          "type": "uint256"
        }
      ],
      "payable": false,
      "stateMutability": "view",
      "type": "function"
    },
    {
      "constant": false,
      "inputs": [
        {
          "name": "_idx",
          "type": "uint256"
        },
        {
          "name": "_NSFW",
          "type": "bool"
        }
      ],
      "name": "forceNSFW",
      "outputs": [],
      "payable": false,
      "stateMutability": "nonpayable",
      "type": "function"
    },
    {
      "constant": true,
      "inputs": [],
      "name": "weiPixelPrice",
      "outputs": [
        {
          "name": "",
          "type": "uint256"
        }
      ],
      "payable": false,
      "stateMutability": "view",
      "type": "function"
    },
    {
      "constant": true,
      "inputs": [],
      "name": "getWithdrawalAddress",
      "outputs": [
        {
          "name": "",
          "type": "address"
        }
      ],
      "payable": false,
      "stateMutability": "view",
      "type": "function"
    },
    {
      "inputs": [
        {
          "name": "_contractOwner",
          "type": "address"
        },
        {
          "name": "_withdrawWallet",
          "type": "address"
        }
      ],
      "payable": false,
      "stateMutability": "nonpayable",
      "type": "constructor"
    },
    {
      "anonymous": false,
      "inputs": [
        {
          "indexed": true,
          "name": "idx",
          "type": "uint256"
        },
        {
          "indexed": false,
          "name": "owner",
          "type": "address"
        },
        {
          "indexed": false,
          "name": "x",
          "type": "uint256"
        },
        {
          "indexed": false,
          "name": "y",
          "type": "uint256"
        },
        {
          "indexed": false,
          "name": "width",
          "type": "uint256"
        },
        {
          "indexed": false,
          "name": "height",
          "type": "uint256"
        }
      ],
      "name": "Buy",
      "type": "event"
    },
    {
      "anonymous": false,
      "inputs": [
        {
          "indexed": true,
          "name": "idx",
          "type": "uint256"
        },
        {
          "indexed": false,
          "name": "link",
          "type": "string"
        },
        {
          "indexed": false,
          "name": "image",
          "type": "string"
        },
        {
          "indexed": false,
          "name": "title",
          "type": "string"
        },
        {
          "indexed": false,
          "name": "NSFW",
          "type": "bool"
        }
      ],
      "name": "Publish",
      "type": "event"
    },
    {
      "anonymous": false,
      "inputs": [
        {
          "indexed": true,
          "name": "idx",
          "type": "uint256"
        },
        {
          "indexed": false,
          "name": "from",
          "type": "address"
        },
        {
          "indexed": false,
          "name": "to",
          "type": "address"
        }
      ],
      "name": "SetAdOwner",
      "type": "event"
    }
  ],
  "bytecode": "0x6060604052341561000f57600080fd5b60405160408061170383398101604052808051906020019091908051906020019091905050600073ffffffffffffffffffffffffffffffffffffffff168273ffffffffffffffffffffffffffffffffffffffff161415151561007057600080fd5b600073ffffffffffffffffffffffffffffffffffffffff168173ffffffffffffffffffffffffffffffffffffffff16141515156100ac57600080fd5b8161019060006101000a81548173ffffffffffffffffffffffffffffffffffffffff021916908373ffffffffffffffffffffffffffffffffffffffff1602179055508061019160006101000a81548173ffffffffffffffffffffffffffffffffffffffff021916908373ffffffffffffffffffffffffffffffffffffffff16021790555050506115c2806101416000396000f3006060604052600436106100ba576000357c0100000000000000000000000000000000000000000000000000000000900463ffffffff16806311a7a4c0146100bf5780631281311d146102ef57806313f4b42c14610336578063146008e31461035f5780633ccfd60b146103a3578063442890d5146103b857806345ebc1451461040d578063759c7a58146105045780637a6adab614610546578063acff2fce1461056f578063d5bec84e1461059d578063ec8f3fa5146105c6575b600080fd5b34156100ca57600080fd5b6100e0600480803590602001909190505061061b565b604051808b73ffffffffffffffffffffffffffffffffffffffff1673ffffffffffffffffffffffffffffffffffffffff1681526020018a815260200189815260200188815260200187815260200180602001806020018060200186151515158152602001851515151581526020018481038452898181546001816001161561010002031660029004815260200191508054600181600116156101000203166002900480156101cf5780601f106101a4576101008083540402835291602001916101cf565b820191906000526020600020905b8154815290600101906020018083116101b257829003601f168201915b50508481038352888181546001816001161561010002031660029004815260200191508054600181600116156101000203166002900480156102525780601f1061022757610100808354040283529160200191610252565b820191906000526020600020905b81548152906001019060200180831161023557829003601f168201915b50508481038252878181546001816001161561010002031660029004815260200191508054600181600116156101000203166002900480156102d55780601f106102aa576101008083540402835291602001916102d5565b820191906000526020600020905b8154815290600101906020018083116102b857829003601f168201915b50509d505050505050505050505050505060405180910390f35b61032060048080359060200190919080359060200190919080359060200190919080359060200190919050506106b6565b6040518082815260200191505060405180910390f35b341561034157600080fd5b610349610a12565b6040518082815260200191505060405180910390f35b341561036a57600080fd5b6103896004808035906020019091908035906020019091905050610a17565b604051808215151515815260200191505060405180910390f35b34156103ae57600080fd5b6103b6610a54565b005b34156103c357600080fd5b6103cb610b2d565b604051808273ffffffffffffffffffffffffffffffffffffffff1673ffffffffffffffffffffffffffffffffffffffff16815260200191505060405180910390f35b341561041857600080fd5b610502600480803590602001909190803590602001908201803590602001908080601f0160208091040260200160405190810160405280939291908181526020018383808284378201915050505050509190803590602001908201803590602001908080601f0160208091040260200160405190810160405280939291908181526020018383808284378201915050505050509190803590602001908201803590602001908080601f016020809104026020016040519081016040528093929190818152602001838380828437820191505050505050919080351515906020019091905050610b58565b005b341561050f57600080fd5b610544600480803590602001909190803573ffffffffffffffffffffffffffffffffffffffff16906020019091905050610e54565b005b341561055157600080fd5b610559610fb4565b6040518082815260200191505060405180910390f35b341561057a57600080fd5b61059b60048080359060200190919080351515906020019091905050610fc2565b005b34156105a857600080fd5b6105b061126f565b6040518082815260200191505060405180910390f35b34156105d157600080fd5b6105d961127a565b604051808273ffffffffffffffffffffffffffffffffffffffff1673ffffffffffffffffffffffffffffffffffffffff16815260200191505060405180910390f35b6101928181548110151561062b57fe5b90600052602060002090600902016000915090508060000160009054906101000a900473ffffffffffffffffffffffffffffffffffffffff16908060010154908060020154908060030154908060040154908060050190806006019080600701908060080160009054906101000a900460ff16908060080160019054906101000a900460ff1690508a565b6000806000806106c46112a5565b66038d7ea4c680006064878902020293506000841115156106e457600080fd5b8334101515156106f357600080fd5b600092505b868310156107b057600091505b858210156107a3576000838a0160648110151561071e57fe5b6004020182890160648110151561073157fe5b602091828204019190069054906101000a900460ff161561075157600080fd5b60016000848b0160648110151561076457fe5b60040201838a0160648110151561077757fe5b602091828204019190066101000a81548160ff0219169083151502179055508180600101925050610705565b82806001019350506106f8565b610140604051908101604052803373ffffffffffffffffffffffffffffffffffffffff1681526020018a81526020018981526020018881526020018781526020016020604051908101604052806000815250815260200160206040519081016040528060008152508152602001602060405190810160405280600081525081526020016000151581526020016000151581525090506001610192805480600101828161085c9190611325565b9160005260206000209060090201600084909190915060008201518160000160006101000a81548173ffffffffffffffffffffffffffffffffffffffff021916908373ffffffffffffffffffffffffffffffffffffffff1602179055506020820151816001015560408201518160020155606082015181600301556080820151816004015560a08201518160050190805190602001906108fd929190611357565b5060c082015181600601908051906020019061091a929190611357565b5060e0820151816007019080519060200190610937929190611357565b506101008201518160080160006101000a81548160ff0219169083151502179055506101208201518160080160016101000a81548160ff0219169083151502179055505050039450847fc743092e1c1087d90fef606d97a56863ec6bbfd9e9cfbdddfe075a31094d70c1338b8b8b8b604051808673ffffffffffffffffffffffffffffffffffffffff1673ffffffffffffffffffffffffffffffffffffffff1681526020018581526020018481526020018381526020018281526020019550505050505060405180910390a284945050505050949350505050565b606481565b600082606481101515610a2657fe5b6004020181606481101515610a3757fe5b60209182820401919006915091509054906101000a900460ff1681565b61019060009054906101000a900473ffffffffffffffffffffffffffffffffffffffff1673ffffffffffffffffffffffffffffffffffffffff163373ffffffffffffffffffffffffffffffffffffffff16141515610ab157600080fd5b61019160009054906101000a900473ffffffffffffffffffffffffffffffffffffffff1673ffffffffffffffffffffffffffffffffffffffff166108fc3073ffffffffffffffffffffffffffffffffffffffff16319081150290604051600060405180830381858888f193505050501515610b2b57600080fd5b565b600061019060009054906101000a900473ffffffffffffffffffffffffffffffffffffffff16905090565b600061019286815481101515610b6a57fe5b906000526020600020906009020190508060000160009054906101000a900473ffffffffffffffffffffffffffffffffffffffff1673ffffffffffffffffffffffffffffffffffffffff163373ffffffffffffffffffffffffffffffffffffffff16141515610bd857600080fd5b84816005019080519060200190610bf09291906113d7565b5083816006019080519060200190610c099291906113d7565b5082816007019080519060200190610c229291906113d7565b50818160080160006101000a81548160ff021916908315150217905550857f7c51272765f77e811c6ee6178cc8fa0d14abd934d7864e02d6261ffae52e2a718260050183600601846007018560080160009054906101000a900460ff1680610c9857508560080160019054906101000a900460ff165b6040518080602001806020018060200185151515158152602001848103845288818154600181600116156101000203166002900481526020019150805460018160011615610100020316600290048015610d335780601f10610d0857610100808354040283529160200191610d33565b820191906000526020600020905b815481529060010190602001808311610d1657829003601f168201915b5050848103835287818154600181600116156101000203166002900481526020019150805460018160011615610100020316600290048015610db65780601f10610d8b57610100808354040283529160200191610db6565b820191906000526020600020905b815481529060010190602001808311610d9957829003601f168201915b5050848103825286818154600181600116156101000203166002900481526020019150805460018160011615610100020316600290048015610e395780601f10610e0e57610100808354040283529160200191610e39565b820191906000526020600020905b815481529060010190602001808311610e1c57829003601f168201915b505097505050505050505060405180910390a2505050505050565b600061019283815481101515610e6657fe5b906000526020600020906009020190508060000160009054906101000a900473ffffffffffffffffffffffffffffffffffffffff1673ffffffffffffffffffffffffffffffffffffffff163373ffffffffffffffffffffffffffffffffffffffff16141515610ed457600080fd5b818160000160006101000a81548173ffffffffffffffffffffffffffffffffffffffff021916908373ffffffffffffffffffffffffffffffffffffffff160217905550827f5edf8d3cbd06178d149c2e008761e8055de4a427c9cb7a038d34617ee286d58b3384604051808373ffffffffffffffffffffffffffffffffffffffff1673ffffffffffffffffffffffffffffffffffffffff1681526020018273ffffffffffffffffffffffffffffffffffffffff1673ffffffffffffffffffffffffffffffffffffffff1681526020019250505060405180910390a2505050565b600061019280549050905090565b600061019060009054906101000a900473ffffffffffffffffffffffffffffffffffffffff1673ffffffffffffffffffffffffffffffffffffffff163373ffffffffffffffffffffffffffffffffffffffff1614151561102157600080fd5b6101928381548110151561103157fe5b90600052602060002090600902019050818160080160016101000a81548160ff021916908315150217905550827f7c51272765f77e811c6ee6178cc8fa0d14abd934d7864e02d6261ffae52e2a718260050183600601846007018560080160009054906101000a900460ff16806110b657508560080160019054906101000a900460ff165b60405180806020018060200180602001851515151581526020018481038452888181546001816001161561010002031660029004815260200191508054600181600116156101000203166002900480156111515780601f1061112657610100808354040283529160200191611151565b820191906000526020600020905b81548152906001019060200180831161113457829003601f168201915b50508481038352878181546001816001161561010002031660029004815260200191508054600181600116156101000203166002900480156111d45780601f106111a9576101008083540402835291602001916111d4565b820191906000526020600020905b8154815290600101906020018083116111b757829003601f168201915b50508481038252868181546001816001161561010002031660029004815260200191508054600181600116156101000203166002900480156112575780601f1061122c57610100808354040283529160200191611257565b820191906000526020600020905b81548152906001019060200180831161123a57829003601f168201915b505097505050505050505060405180910390a2505050565b66038d7ea4c6800081565b600061019160009054906101000a900473ffffffffffffffffffffffffffffffffffffffff16905090565b61014060405190810160405280600073ffffffffffffffffffffffffffffffffffffffff168152602001600081526020016000815260200160008152602001600081526020016112f3611457565b8152602001611300611457565b815260200161130d611457565b81526020016000151581526020016000151581525090565b81548183558181151161135257600902816009028360005260206000209182019101611351919061146b565b5b505050565b828054600181600116156101000203166002900490600052602060002090601f016020900481019282601f1061139857805160ff19168380011785556113c6565b828001600101855582156113c6579182015b828111156113c55782518255916020019190600101906113aa565b5b5090506113d39190611529565b5090565b828054600181600116156101000203166002900490600052602060002090601f016020900481019282601f1061141857805160ff1916838001178555611446565b82800160010185558215611446579182015b8281111561144557825182559160200191906001019061142a565b5b5090506114539190611529565b5090565b602060405190810160405280600081525090565b61152691905b8082111561152257600080820160006101000a81549073ffffffffffffffffffffffffffffffffffffffff021916905560018201600090556002820160009055600382016000905560048201600090556005820160006114d1919061154e565b6006820160006114e1919061154e565b6007820160006114f1919061154e565b6008820160006101000a81549060ff02191690556008820160016101000a81549060ff021916905550600901611471565b5090565b90565b61154b91905b8082111561154757600081600090555060010161152f565b5090565b90565b50805460018160011615610100020316600290046000825580601f106115745750611593565b601f0160209004906000526020600020908101906115929190611529565b5b505600a165627a7a72305820c92f575b77fc96f2714ca8738645c6a3b4cb3416977b07931fcb1fda057abb3f0029",
  "source": "pragma solidity ^0.4.18;\n\ncontract KetherHomepage {\n    /// Buy is emitted when an ad unit is reserved.\n    event Buy(\n        uint indexed idx,\n        address owner,\n        uint x,\n        uint y,\n        uint width,\n        uint height\n    );\n\n    /// Publish is emitted whenever the contents of an ad is changed.\n    event Publish(\n        uint indexed idx,\n        string link,\n        string image,\n        string title,\n        bool NSFW\n    );\n\n    /// SetAdOwner is emitted whenever the ownership of an ad is transfered\n    event SetAdOwner(\n        uint indexed idx,\n        address from,\n        address to\n    );\n\n    /// Price is 1 kether divided by 1,000,000 pixels\n    uint public constant weiPixelPrice = 1000000000000000;\n\n    /// Each grid cell represents 100 pixels (10x10).\n    uint public constant pixelsPerCell = 100;\n\n    bool[100][100] public grid;\n\n    /// contractOwner can withdraw the funds and override NSFW status of ad units.\n    address contractOwner;\n\n    /// withdrawWallet is the fixed destination of funds to withdraw. It is\n    /// separate from contractOwner to allow for a cold storage destination.\n    address withdrawWallet;\n\n    struct Ad {\n        address owner;\n        uint x;\n        uint y;\n        uint width;\n        uint height;\n        string link;\n        string image;\n        string title;\n\n        /// NSFW is whether the ad is suitable for people of all\n        /// ages and workplaces.\n        bool NSFW;\n        /// forceNSFW can be set by owner.\n        bool forceNSFW;\n    }\n\n    /// ads are stored in an array, the id of an ad is its index in this array.\n    Ad[] public ads;\n\n    function KetherHomepage(address _contractOwner, address _withdrawWallet) {\n        require(_contractOwner != address(0));\n        require(_withdrawWallet != address(0));\n\n        contractOwner = _contractOwner;\n        withdrawWallet = _withdrawWallet;\n    }\n\n    /// getAdsLength tells you how many ads there are\n    function getAdsLength() constant public returns (uint) {\n        return ads.length;\n    }\n    //to get the contract owner address\n    function  getContractOwner() constant public returns (address){\n        return contractOwner;\n    }\n\n    //to get the withdrawal address\n    function getWithdrawalAddress() constant public returns (address){\n        return withdrawWallet;\n    }\n    /// Ads must be purchased in 10x10 pixel blocks.\n    /// Each coordinate represents 10 pixels. That is,\n    ///   _x=5, _y=10, _width=3, _height=3\n    /// Represents a 30x30 pixel ad at coordinates (50, 100)\n    function buy(uint _x, uint _y, uint _width, uint _height) payable public returns (uint idx) {\n        uint cost = _width * _height * pixelsPerCell * weiPixelPrice;\n        require(cost > 0);\n        require(msg.value >= cost);\n\n        // Loop over relevant grid entries\n        for(uint i=0; i<_width; i++) {\n            for(uint j=0; j<_height; j++) {\n                if (grid[_x+i][_y+j]) {\n                    // Already taken, undo.\n                    revert();\n                }\n                grid[_x+i][_y+j] = true;\n            }\n        }\n\n        // We reserved space in the grid, now make a placeholder entry.\n        Ad memory ad = Ad(msg.sender, _x, _y, _width, _height, \"\", \"\", \"\", false, false);\n        idx = ads.push(ad) - 1;\n        Buy(idx, msg.sender, _x, _y, _width, _height);\n        return idx;\n    }\n\n    /// Publish allows for setting the link, image, and NSFW status for the ad\n    /// unit that is identified by the idx which was returned during the buy step.\n    /// The link and image must be full web3-recognizeable URLs, such as:\n    ///  - bzz://a5c10851ef054c268a2438f10a21f6efe3dc3dcdcc2ea0e6a1a7a38bf8c91e23\n    ///  - bzz://mydomain.eth/ad.png\n    ///  - https://cdn.mydomain.com/ad.png\n    /// Images should be valid PNG.\n    \n    function publish(uint _idx, string _link, string _image, string _title, bool _NSFW) public{\n        Ad storage ad = ads[_idx];\n        require(msg.sender == ad.owner);\n        ad.link = _link;\n        ad.image = _image;\n        ad.title = _title;\n        ad.NSFW = _NSFW;\n\n        Publish(_idx, ad.link, ad.image, ad.title, ad.NSFW || ad.forceNSFW);\n    }\n\n    /// setAdOwner changes the owner of an ad unit\n    function setAdOwner(uint _idx, address _newOwner) public{\n        Ad storage ad = ads[_idx];\n        require(msg.sender == ad.owner);\n        ad.owner = _newOwner;\n\n        SetAdOwner(_idx, msg.sender, _newOwner);\n    }\n\n    /// forceNSFW allows the owner to override the NSFW status for a specific ad unit.\n    function forceNSFW(uint _idx, bool _NSFW) public{\n        require(msg.sender == contractOwner);\n        Ad storage ad = ads[_idx];\n        ad.forceNSFW = _NSFW;\n\n        Publish(_idx, ad.link, ad.image, ad.title, ad.NSFW || ad.forceNSFW);\n    }\n\n    /// withdraw allows the owner to transfer out the balance of the contract.\n    function withdraw() public{\n        require(msg.sender == contractOwner);\n        withdrawWallet.transfer(this.balance);\n    }\n}\n",
  "sourcePath": "/home/sameep/freelancing-projects/gurnor/ketherhomepage/contracts/KetherHomepage.sol",
  "compiler": {
    "name": "solc",
    "version": "0.4.18+commit.9cf6e910.Emscripten.clang"
  },
  "schemaVersion": "1.0.1",
  "updatedAt": "2017-12-20T15:11:42.191Z"
}