{
  "contractName": "KetherHomepage",
  "abi": [
    {
      "constant": true,
      "inputs": [
        {
          "name": "",
          "type": "uint256"
        }
      ],
      "name": "ads",
      "outputs": [
        {
          "name": "owner",
          "type": "address"
        },
        {
          "name": "x",
          "type": "uint256"
        },
        {
          "name": "y",
          "type": "uint256"
        },
        {
          "name": "width",
          "type": "uint256"
        },
        {
          "name": "height",
          "type": "uint256"
        },
        {
          "name": "link",
          "type": "string"
        },
        {
          "name": "image",
          "type": "string"
        },
        {
          "name": "title",
          "type": "string"
        },
        {
          "name": "NSFW",
          "type": "bool"
        },
        {
          "name": "forceNSFW",
          "type": "bool"
        }
      ],
      "payable": false,
      "stateMutability": "view",
      "type": "function"
    },
    {
      "constant": false,
      "inputs": [
        {
          "name": "_x",
          "type": "uint256"
        },
        {
          "name": "_y",
          "type": "uint256"
        },
        {
          "name": "_width",
          "type": "uint256"
        },
        {
          "name": "_height",
          "type": "uint256"
        }
      ],
      "name": "buy",
      "outputs": [
        {
          "name": "idx",
          "type": "uint256"
        }
      ],
      "payable": true,
      "stateMutability": "payable",
      "type": "function"
    },
    {
      "constant": true,
      "inputs": [],
      "name": "pixelsPerCell",
      "outputs": [
        {
          "name": "",
          "type": "uint256"
        }
      ],
      "payable": false,
      "stateMutability": "view",
      "type": "function"
    },
    {
      "constant": true,
      "inputs": [
        {
          "name": "",
          "type": "uint256"
        },
        {
          "name": "",
          "type": "uint256"
        }
      ],
      "name": "grid",
      "outputs": [
        {
          "name": "",
          "type": "bool"
        }
      ],
      "payable": false,
      "stateMutability": "view",
      "type": "function"
    },
    {
      "constant": false,
      "inputs": [],
      "name": "withdraw",
      "outputs": [],
      "payable": false,
      "stateMutability": "nonpayable",
      "type": "function"
    },
    {
      "constant": true,
      "inputs": [],
      "name": "getContractOwner",
      "outputs": [
        {
          "name": "",
          "type": "address"
        }
      ],
      "payable": false,
      "stateMutability": "view",
      "type": "function"
    },
    {
      "constant": false,
      "inputs": [
        {
          "name": "_idx",
          "type": "uint256"
        },
        {
          "name": "_link",
          "type": "string"
        },
        {
          "name": "_image",
          "type": "string"
        },
        {
          "name": "_title",
          "type": "string"
        },
        {
          "name": "_NSFW",
          "type": "bool"
        }
      ],
      "name": "publish",
      "outputs": [],
      "payable": false,
      "stateMutability": "nonpayable",
      "type": "function"
    },
    {
      "constant": false,
      "inputs": [
        {
          "name": "_x",
          "type": "uint256"
        },
        {
          "name": "_y",
          "type": "uint256"
        },
        {
          "name": "_width",
          "type": "uint256"
        },
        {
          "name": "_height",
          "type": "uint256"
        }
      ],
      "name": "reserveAdd",
      "outputs": [
        {
          "name": "idx",
          "type": "uint256"
        }
      ],
      "payable": false,
      "stateMutability": "nonpayable",
      "type": "function"
    },
    {
      "constant": false,
      "inputs": [
        {
          "name": "_idx",
          "type": "uint256"
        },
        {
          "name": "_newOwner",
          "type": "address"
        }
      ],
      "name": "setAdOwner",
      "outputs": [],
      "payable": false,
      "stateMutability": "nonpayable",
      "type": "function"
    },
    {
      "constant": true,
      "inputs": [],
      "name": "getAdsLength",
      "outputs": [
        {
          "name": "",
          "type": "uint256"
        }
      ],
      "payable": false,
      "stateMutability": "view",
      "type": "function"
    },
    {
      "constant": false,
      "inputs": [
        {
          "name": "_idx",
          "type": "uint256"
        },
        {
          "name": "_NSFW",
          "type": "bool"
        }
      ],
      "name": "forceNSFW",
      "outputs": [],
      "payable": false,
      "stateMutability": "nonpayable",
      "type": "function"
    },
    {
      "constant": true,
      "inputs": [],
      "name": "weiPixelPrice",
      "outputs": [
        {
          "name": "",
          "type": "uint256"
        }
      ],
      "payable": false,
      "stateMutability": "view",
      "type": "function"
    },
    {
      "constant": true,
      "inputs": [],
      "name": "getWithdrawalAddress",
      "outputs": [
        {
          "name": "",
          "type": "address"
        }
      ],
      "payable": false,
      "stateMutability": "view",
      "type": "function"
    },
    {
      "inputs": [
        {
          "name": "_contractOwner",
          "type": "address"
        },
        {
          "name": "_withdrawWallet",
          "type": "address"
        }
      ],
      "payable": false,
      "stateMutability": "nonpayable",
      "type": "constructor"
    },
    {
      "anonymous": false,
      "inputs": [
        {
          "indexed": true,
          "name": "idx",
          "type": "uint256"
        },
        {
          "indexed": false,
          "name": "owner",
          "type": "address"
        },
        {
          "indexed": false,
          "name": "x",
          "type": "uint256"
        },
        {
          "indexed": false,
          "name": "y",
          "type": "uint256"
        },
        {
          "indexed": false,
          "name": "width",
          "type": "uint256"
        },
        {
          "indexed": false,
          "name": "height",
          "type": "uint256"
        }
      ],
      "name": "Buy",
      "type": "event"
    },
    {
      "anonymous": false,
      "inputs": [
        {
          "indexed": true,
          "name": "idx",
          "type": "uint256"
        },
        {
          "indexed": false,
          "name": "link",
          "type": "string"
        },
        {
          "indexed": false,
          "name": "image",
          "type": "string"
        },
        {
          "indexed": false,
          "name": "title",
          "type": "string"
        },
        {
          "indexed": false,
          "name": "NSFW",
          "type": "bool"
        }
      ],
      "name": "Publish",
      "type": "event"
    },
    {
      "anonymous": false,
      "inputs": [
        {
          "indexed": true,
          "name": "idx",
          "type": "uint256"
        },
        {
          "indexed": false,
          "name": "from",
          "type": "address"
        },
        {
          "indexed": false,
          "name": "to",
          "type": "address"
        }
      ],
      "name": "SetAdOwner",
      "type": "event"
    }
  ],
  "bytecode": "0x6060604052341561000f57600080fd5b6040516040806117f383398101604052808051906020019091908051906020019091905050600073ffffffffffffffffffffffffffffffffffffffff168273ffffffffffffffffffffffffffffffffffffffff161415151561007057600080fd5b600073ffffffffffffffffffffffffffffffffffffffff168173ffffffffffffffffffffffffffffffffffffffff16141515156100ac57600080fd5b8161019060006101000a81548173ffffffffffffffffffffffffffffffffffffffff021916908373ffffffffffffffffffffffffffffffffffffffff1602179055508061019160006101000a81548173ffffffffffffffffffffffffffffffffffffffff021916908373ffffffffffffffffffffffffffffffffffffffff16021790555050506116b2806101416000396000f3006060604052600436106100c5576000357c0100000000000000000000000000000000000000000000000000000000900463ffffffff16806311a7a4c0146100ca5780631281311d146102fa57806313f4b42c14610341578063146008e31461036a5780633ccfd60b146103ae578063442890d5146103c357806345ebc145146104185780634e0ba39d1461050f578063759c7a58146105615780637a6adab6146105a3578063acff2fce146105cc578063d5bec84e146105fa578063ec8f3fa514610623575b600080fd5b34156100d557600080fd5b6100eb6004808035906020019091905050610678565b604051808b73ffffffffffffffffffffffffffffffffffffffff1673ffffffffffffffffffffffffffffffffffffffff1681526020018a815260200189815260200188815260200187815260200180602001806020018060200186151515158152602001851515151581526020018481038452898181546001816001161561010002031660029004815260200191508054600181600116156101000203166002900480156101da5780601f106101af576101008083540402835291602001916101da565b820191906000526020600020905b8154815290600101906020018083116101bd57829003601f168201915b505084810383528881815460018160011615610100020316600290048152602001915080546001816001161561010002031660029004801561025d5780601f106102325761010080835404028352916020019161025d565b820191906000526020600020905b81548152906001019060200180831161024057829003601f168201915b50508481038252878181546001816001161561010002031660029004815260200191508054600181600116156101000203166002900480156102e05780601f106102b5576101008083540402835291602001916102e0565b820191906000526020600020905b8154815290600101906020018083116102c357829003601f168201915b50509d505050505050505050505050505060405180910390f35b61032b6004808035906020019091908035906020019091908035906020019091908035906020019091905050610713565b6040518082815260200191505060405180910390f35b341561034c57600080fd5b61035461075f565b6040518082815260200191505060405180910390f35b341561037557600080fd5b6103946004808035906020019091908035906020019091905050610764565b604051808215151515815260200191505060405180910390f35b34156103b957600080fd5b6103c16107a1565b005b34156103ce57600080fd5b6103d661087a565b604051808273ffffffffffffffffffffffffffffffffffffffff1673ffffffffffffffffffffffffffffffffffffffff16815260200191505060405180910390f35b341561042357600080fd5b61050d600480803590602001909190803590602001908201803590602001908080601f0160208091040260200160405190810160405280939291908181526020018383808284378201915050505050509190803590602001908201803590602001908080601f0160208091040260200160405190810160405280939291908181526020018383808284378201915050505050509190803590602001908201803590602001908080601f0160208091040260200160405190810160405280939291908181526020018383808284378201915050505050509190803515159060200190919050506108a5565b005b341561051a57600080fd5b61054b6004808035906020019091908035906020019091908035906020019091908035906020019091905050610ba1565b6040518082815260200191505060405180910390f35b341561056c57600080fd5b6105a1600480803590602001909190803573ffffffffffffffffffffffffffffffffffffffff16906020019091905050610c19565b005b34156105ae57600080fd5b6105b6610d79565b6040518082815260200191505060405180910390f35b34156105d757600080fd5b6105f860048080359060200190919080351515906020019091905050610d87565b005b341561060557600080fd5b61060d611034565b6040518082815260200191505060405180910390f35b341561062e57600080fd5b61063661103f565b604051808273ffffffffffffffffffffffffffffffffffffffff1673ffffffffffffffffffffffffffffffffffffffff16815260200191505060405180910390f35b6101928181548110151561068857fe5b90600052602060002090600902016000915090508060000160009054906101000a900473ffffffffffffffffffffffffffffffffffffffff16908060010154908060020154908060030154908060040154908060050190806006019080600701908060080160009054906101000a900460ff16908060080160019054906101000a900460ff1690508a565b60008066038d7ea4c6800060648486020202905060008111151561073657600080fd5b80341015151561074557600080fd5b6107518686868661106a565b915081915050949350505050565b606481565b60008260648110151561077357fe5b600402018160648110151561078457fe5b60209182820401919006915091509054906101000a900460ff1681565b61019060009054906101000a900473ffffffffffffffffffffffffffffffffffffffff1673ffffffffffffffffffffffffffffffffffffffff163373ffffffffffffffffffffffffffffffffffffffff161415156107fe57600080fd5b61019160009054906101000a900473ffffffffffffffffffffffffffffffffffffffff1673ffffffffffffffffffffffffffffffffffffffff166108fc3073ffffffffffffffffffffffffffffffffffffffff16319081150290604051600060405180830381858888f19350505050151561087857600080fd5b565b600061019060009054906101000a900473ffffffffffffffffffffffffffffffffffffffff16905090565b6000610192868154811015156108b757fe5b906000526020600020906009020190508060000160009054906101000a900473ffffffffffffffffffffffffffffffffffffffff1673ffffffffffffffffffffffffffffffffffffffff163373ffffffffffffffffffffffffffffffffffffffff1614151561092557600080fd5b8481600501908051906020019061093d929190611395565b5083816006019080519060200190610956929190611395565b508281600701908051906020019061096f929190611395565b50818160080160006101000a81548160ff021916908315150217905550857f7c51272765f77e811c6ee6178cc8fa0d14abd934d7864e02d6261ffae52e2a718260050183600601846007018560080160009054906101000a900460ff16806109e557508560080160019054906101000a900460ff165b6040518080602001806020018060200185151515158152602001848103845288818154600181600116156101000203166002900481526020019150805460018160011615610100020316600290048015610a805780601f10610a5557610100808354040283529160200191610a80565b820191906000526020600020905b815481529060010190602001808311610a6357829003601f168201915b5050848103835287818154600181600116156101000203166002900481526020019150805460018160011615610100020316600290048015610b035780601f10610ad857610100808354040283529160200191610b03565b820191906000526020600020905b815481529060010190602001808311610ae657829003601f168201915b5050848103825286818154600181600116156101000203166002900481526020019150805460018160011615610100020316600290048015610b865780601f10610b5b57610100808354040283529160200191610b86565b820191906000526020600020905b815481529060010190602001808311610b6957829003601f168201915b505097505050505050505060405180910390a2505050505050565b60003373ffffffffffffffffffffffffffffffffffffffff1661019060009054906101000a900473ffffffffffffffffffffffffffffffffffffffff1673ffffffffffffffffffffffffffffffffffffffff16141515610c0057600080fd5b610c0c8585858561106a565b9050809050949350505050565b600061019283815481101515610c2b57fe5b906000526020600020906009020190508060000160009054906101000a900473ffffffffffffffffffffffffffffffffffffffff1673ffffffffffffffffffffffffffffffffffffffff163373ffffffffffffffffffffffffffffffffffffffff16141515610c9957600080fd5b818160000160006101000a81548173ffffffffffffffffffffffffffffffffffffffff021916908373ffffffffffffffffffffffffffffffffffffffff160217905550827f5edf8d3cbd06178d149c2e008761e8055de4a427c9cb7a038d34617ee286d58b3384604051808373ffffffffffffffffffffffffffffffffffffffff1673ffffffffffffffffffffffffffffffffffffffff1681526020018273ffffffffffffffffffffffffffffffffffffffff1673ffffffffffffffffffffffffffffffffffffffff1681526020019250505060405180910390a2505050565b600061019280549050905090565b600061019060009054906101000a900473ffffffffffffffffffffffffffffffffffffffff1673ffffffffffffffffffffffffffffffffffffffff163373ffffffffffffffffffffffffffffffffffffffff16141515610de657600080fd5b61019283815481101515610df657fe5b90600052602060002090600902019050818160080160016101000a81548160ff021916908315150217905550827f7c51272765f77e811c6ee6178cc8fa0d14abd934d7864e02d6261ffae52e2a718260050183600601846007018560080160009054906101000a900460ff1680610e7b57508560080160019054906101000a900460ff165b6040518080602001806020018060200185151515158152602001848103845288818154600181600116156101000203166002900481526020019150805460018160011615610100020316600290048015610f165780601f10610eeb57610100808354040283529160200191610f16565b820191906000526020600020905b815481529060010190602001808311610ef957829003601f168201915b5050848103835287818154600181600116156101000203166002900481526020019150805460018160011615610100020316600290048015610f995780601f10610f6e57610100808354040283529160200191610f99565b820191906000526020600020905b815481529060010190602001808311610f7c57829003601f168201915b505084810382528681815460018160011615610100020316600290048152602001915080546001816001161561010002031660029004801561101c5780601f10610ff15761010080835404028352916020019161101c565b820191906000526020600020905b815481529060010190602001808311610fff57829003601f168201915b505097505050505050505060405180910390a2505050565b66038d7ea4c6800081565b600061019160009054906101000a900473ffffffffffffffffffffffffffffffffffffffff16905090565b6000806000611077611415565b600092505b8583101561113457600091505b848210156111275760008389016064811015156110a257fe5b600402018288016064811015156110b557fe5b602091828204019190069054906101000a900460ff16156110d557600080fd5b60016000848a016064811015156110e857fe5b600402018389016064811015156110fb57fe5b602091828204019190066101000a81548160ff0219169083151502179055508180600101925050611089565b828060010193505061107c565b610140604051908101604052803373ffffffffffffffffffffffffffffffffffffffff168152602001898152602001888152602001878152602001868152602001602060405190810160405280600081525081526020016020604051908101604052806000815250815260200160206040519081016040528060008152508152602001600015158152602001600015158152509050600161019280548060010182816111e09190611495565b9160005260206000209060090201600084909190915060008201518160000160006101000a81548173ffffffffffffffffffffffffffffffffffffffff021916908373ffffffffffffffffffffffffffffffffffffffff1602179055506020820151816001015560408201518160020155606082015181600301556080820151816004015560a08201518160050190805190602001906112819291906114c7565b5060c082015181600601908051906020019061129e9291906114c7565b5060e08201518160070190805190602001906112bb9291906114c7565b506101008201518160080160006101000a81548160ff0219169083151502179055506101208201518160080160016101000a81548160ff0219169083151502179055505050039350837fc743092e1c1087d90fef606d97a56863ec6bbfd9e9cfbdddfe075a31094d70c1338a8a8a8a604051808673ffffffffffffffffffffffffffffffffffffffff1673ffffffffffffffffffffffffffffffffffffffff1681526020018581526020018481526020018381526020018281526020019550505050505060405180910390a2839350505050949350505050565b828054600181600116156101000203166002900490600052602060002090601f016020900481019282601f106113d657805160ff1916838001178555611404565b82800160010185558215611404579182015b828111156114035782518255916020019190600101906113e8565b5b5090506114119190611547565b5090565b61014060405190810160405280600073ffffffffffffffffffffffffffffffffffffffff1681526020016000815260200160008152602001600081526020016000815260200161146361156c565b815260200161147061156c565b815260200161147d61156c565b81526020016000151581526020016000151581525090565b8154818355818115116114c2576009028160090283600052602060002091820191016114c19190611580565b5b505050565b828054600181600116156101000203166002900490600052602060002090601f016020900481019282601f1061150857805160ff1916838001178555611536565b82800160010185558215611536579182015b8281111561153557825182559160200191906001019061151a565b5b5090506115439190611547565b5090565b61156991905b8082111561156557600081600090555060010161154d565b5090565b90565b602060405190810160405280600081525090565b61163b91905b8082111561163757600080820160006101000a81549073ffffffffffffffffffffffffffffffffffffffff021916905560018201600090556002820160009055600382016000905560048201600090556005820160006115e6919061163e565b6006820160006115f6919061163e565b600782016000611606919061163e565b6008820160006101000a81549060ff02191690556008820160016101000a81549060ff021916905550600901611586565b5090565b90565b50805460018160011615610100020316600290046000825580601f106116645750611683565b601f0160209004906000526020600020908101906116829190611547565b5b505600a165627a7a7230582056efcd616a80e47708725adef829a2d90f88d8989b07481db70756e837207ea70029",
  "source": "pragma solidity ^0.4.18;\n\ncontract KetherHomepage {\n    /// Buy is emitted when an ad unit is reserved.\n    event Buy(\n        uint indexed idx,\n        address owner,\n        uint x,\n        uint y,\n        uint width,\n        uint height\n    );\n\n    /// Publish is emitted whenever the contents of an ad is changed.\n    event Publish(\n        uint indexed idx,\n        string link,\n        string image,\n        string title,\n        bool NSFW\n    );\n\n    /// SetAdOwner is emitted whenever the ownership of an ad is transfered\n    event SetAdOwner(\n        uint indexed idx,\n        address from,\n        address to\n    );\n\n    /// Price is 1 kether divided by 1,000,000 pixels\n    uint public constant weiPixelPrice = 1000000000000000;\n\n    /// Each grid cell represents 100 pixels (10x10).\n    uint public constant pixelsPerCell = 100;\n\n    bool[100][100] public grid;\n\n    /// contractOwner can withdraw the funds and override NSFW status of ad units.\n    address contractOwner;\n\n    /// withdrawWallet is the fixed destination of funds to withdraw. It is\n    /// separate from contractOwner to allow for a cold storage destination.\n    address withdrawWallet;\n\n    struct Ad {\n        address owner;\n        uint x;\n        uint y;\n        uint width;\n        uint height;\n        string link;\n        string image;\n        string title;\n\n        /// NSFW is whether the ad is suitable for people of all\n        /// ages and workplaces.\n        bool NSFW;\n        /// forceNSFW can be set by owner.\n        bool forceNSFW;\n    }\n\n    /// ads are stored in an array, the id of an ad is its index in this array.\n    Ad[] public ads;\n\n    function KetherHomepage(address _contractOwner, address _withdrawWallet) {\n        require(_contractOwner != address(0));\n        require(_withdrawWallet != address(0));\n\n        contractOwner = _contractOwner;\n        withdrawWallet = _withdrawWallet;\n    }\n\n    /// getAdsLength tells you how many ads there are\n    function getAdsLength() constant public returns (uint) {\n        return ads.length;\n    }\n    //to get the contract owner address\n    function  getContractOwner() constant public returns (address){\n        return contractOwner;\n    }\n\n    //to get the withdrawal address\n    function getWithdrawalAddress() constant public returns (address){\n        return withdrawWallet;\n    }\n    /// Ads must be purchased in 10x10 pixel blocks.\n    /// Each coordinate represents 10 pixels. That is,\n    ///   _x=5, _y=10, _width=3, _height=3\n    /// Represents a 30x30 pixel ad at coordinates (50, 100)\n    function buy(uint _x, uint _y, uint _width, uint _height) payable public returns (uint idx) {\n        uint cost = _width * _height * pixelsPerCell * weiPixelPrice;\n        require(cost > 0);\n        require(msg.value >= cost);\n\n       idx = addAd(_x, _y, _width, _height);\n        \n        return idx;\n    }\n\n  /// Ads must be purchased in 10x10 pixel blocks.\n    /// Each coordinate represents 10 pixels. That is,\n    ///   _x=5, _y=10, _width=3, _height=3\n    /// Represents a 30x30 pixel ad at coordinates (50, 100)\n    // add reserved by owner\n    //not payable\n    function reserveAdd(uint _x, uint _y, uint _width, uint _height) public returns (uint idx) {\n        require(contractOwner == msg.sender);\n        \n        idx = addAd(_x, _y, _width, _height);\n        \n        return idx;\n    }\n\n    function addAd(uint _x, uint _y, uint _width, uint _height)private returns(uint idx){\n        // Loop over relevant grid entries\n        for(uint i=0; i<_width; i++) {\n            for(uint j=0; j<_height; j++) {\n                if (grid[_x+i][_y+j]) {\n                    // Already taken, undo.\n                    revert();\n                }\n                grid[_x+i][_y+j] = true;\n            }\n        }\n\n        // We reserved space in the grid, now make a placeholder entry.\n        Ad memory ad = Ad(msg.sender, _x, _y, _width, _height, \"\", \"\", \"\", false, false);\n        idx = ads.push(ad) - 1;\n        Buy(idx, msg.sender, _x, _y, _width, _height);\n        return idx;\n    }\n    \n    /// Publish allows for setting the link, image, and NSFW status for the ad\n    /// unit that is identified by the idx which was returned during the buy step.\n    /// The link and image must be full web3-recognizeable URLs, such as:\n    ///  - bzz://a5c10851ef054c268a2438f10a21f6efe3dc3dcdcc2ea0e6a1a7a38bf8c91e23\n    ///  - bzz://mydomain.eth/ad.png\n    ///  - https://cdn.mydomain.com/ad.png\n    /// Images should be valid PNG.\n    \n    function publish(uint _idx, string _link, string _image, string _title, bool _NSFW) public{\n        Ad storage ad = ads[_idx];\n        require(msg.sender == ad.owner);\n        ad.link = _link;\n        ad.image = _image;\n        ad.title = _title;\n        ad.NSFW = _NSFW;\n\n        Publish(_idx, ad.link, ad.image, ad.title, ad.NSFW || ad.forceNSFW);\n    }\n\n    /// setAdOwner changes the owner of an ad unit\n    function setAdOwner(uint _idx, address _newOwner) public{\n        Ad storage ad = ads[_idx];\n        require(msg.sender == ad.owner);\n        ad.owner = _newOwner;\n\n        SetAdOwner(_idx, msg.sender, _newOwner);\n    }\n\n    /// forceNSFW allows the owner to override the NSFW status for a specific ad unit.\n    function forceNSFW(uint _idx, bool _NSFW) public{\n        require(msg.sender == contractOwner);\n        Ad storage ad = ads[_idx];\n        ad.forceNSFW = _NSFW;\n\n        Publish(_idx, ad.link, ad.image, ad.title, ad.NSFW || ad.forceNSFW);\n    }\n\n    /// withdraw allows the owner to transfer out the balance of the contract.\n    function withdraw() public{\n        require(msg.sender == contractOwner);\n        withdrawWallet.transfer(this.balance);\n    }\n}\n",
  "sourcePath": "/home/sameep/freelancing-projects/gurnor/ketherhomepage/contracts/KetherHomepage.sol",
  "compiler": {
    "name": "solc",
    "version": "0.4.18+commit.9cf6e910.Emscripten.clang"
  },
  "schemaVersion": "1.0.1",
  "updatedAt": "2017-12-28T08:24:02.017Z"
}